:10000000012883161F3085008601831286018C012A
:100010008D018E01102018208E02031D2128242816
:1000200005088C000C118C110C120C088E000800B5
:1000300005088D000D108D100D128D0C8D0C0D0806
:100040000800031C27282E28860135200028860159
:100050000614861406158615352000288601061616
:100060008616061786173520002802309100FF30CB
:100070009200FF309300930B3B28920B3928910B91
:040080003728080015
:02400E00F93F78
:00000001FF
