:10000000012883161D3085008601831203308F007E
:1000100003309000051D0D280E280A288F1C11287A
:1000200014280F1C17281428013086004620101CA5
:100030001A281D28901C20281D2880308600342076
:1000400014081502031D292825283C308600582055
:100050000628031C2C2830280F308600582006283C
:10006000F030860058200628861F37283A28582066
:10007000860D34285820051E42283E28023085006F
:100080005820462086019003940A0A28061C492815
:100090004C285820860C46285820051C54285028E7
:1000A000023085005820342086018F03950A0A28E3
:1000B0000311A5309300031D5E286828C830920004
:1000C000031D6328652892036028031193035B28AE
:0200D000080026
:02400E00F93F78
:00000001FF
